:020000040800F2
:1000000010040020D9010008830B0008210B000810
:10001000810B0008E5020008550C000800000000F4
:10002000000000000000000000000000870B000836
:10003000E702000800000000850B0008890B00089B
:10004000F3010008F3010008F3010008F3010008C0
:10005000F3010008F3010008F3010008F3010008B0
:10006000F3010008F3010008F3010008F3010008A0
:10007000F3010008F3010008F3010008F301000890
:10008000F3010008F3010008F3010008F301000880
:10009000F3010008F3010008F3010008F301000870
:1000A000F3010008F3010008F3010008F301000860
:1000B000F3010008F3010008F3010008F301000850
:1000C000F3010008F3010008F3010008F301000840
:1000D000F3010008F3010008F3010008F301000830
:1000E000F3010008F3010008F3010008F301000820
:1000F000F3010008F3010008F3010008F301000810
:10010000F3010008F3010008F3010008F3010008FF
:10011000F3010008F3010008F3010008F3010008EF
:10012000F3010008F3010008F3010008F3010008DF
:10013000F30100080000000000000000F3010008C7
:10014000F3010008F3010008F3010008F3010008BF
:10015000F3010008F3010008F3010008F3010008AF
:10016000F3010008F3010008F3010008F30100089F
:10017000F3010008F3010008F3010008000000008B
:1001800000000000F3010008000000000000000073
:10019000F30100080000000000000000F301000867
:1001A000000000000000000000000000F301000853
:1001B000F3010008F3010008F3010008F30100084F
:1001C000F3010008DFF80CD000F07AF8004800478F
:1001D000950C000810040020064880470648004798
:1001E000FEE7FEE7FEE7FEE7FEE7FEE7FEE7FEE7E7
:1001F000FEE7FEE7010C0008C50100082DE9F05FED
:100200000546002092469B46884606468146402485
:100210001BE0284641464746224600F041F8534637
:100220005A46C01A914110D311461846224600F092
:1002300028F82D1A67EB01084F46224601200021BD
:1002400000F01FF817EB00094E41201EA4F1010435
:10025000DFDC484631462A464346BDE8F09FD2B22D
:1002600001E000F8012B491EFBD270470022F6E79F
:1002700010B513460A4604461946FFF7F0FF20461C
:1002800010BD202A04DB203A00FA02F1002070475A
:100290009140C2F1200320FA03F3194390407047C4
:1002A000202A04DB203A21FA02F00021704721FACB
:1002B00002F3D040C2F12002914008431946704732
:1002C000064C074D06E0E06840F0010394E80700A3
:1002D00098471034AC42F6D3FFF778FFE40C0008DF
:1002E000040D0008FEE7704770B5044600F0ECF816
:1002F0000546601C02D004480078044400F0E4F88D
:10030000401BA042FAD370BD000000202DE9F84F39
:10031000DFF874B100224FF001084FF0030A4FF0EC
:100320000F090BF1040E00BF0B6808FA02F423401A
:10033000A3426ED14D68022D01D0122D0ED1D508E9
:1003400000EB850CDCF820505607F70E09FA07F68B
:10035000B5430E69BE402E43CCF8206006685500B8
:100360000F790AFA05FC07F0030726EA0C06AF40EE
:10037000374307604E68012E05D0022E03D0112EA0
:1003800001D0122E0ED18668CF6826EA0C06AF4047
:10039000374387604668A6430C79C4F30014944041
:1003A00034434460C4688E6824EA0C04AE4026439B
:1003B000C6604C68E40060D5344C256845F480453F
:1003C0002560246822F0030504F480440094304C36
:1003D0002E19D6F8084895072F0F09FA07F5AC43F0
:1003E0002C4DA84201D100251FE02B4DA84201D180
:1003F00001251AE0294DA84201D1022515E0284D1A
:10040000A84201D1032510E0264DA84202D10425BF
:100410000BE032E0244DA84201D1052505E0234D33
:10042000A84201D1062500E00725BD402543C6F8B6
:100430000858DBF800405D464E689C43F60300D543
:100440001C432C60DEF8004075464E689C43B603A2
:1004500000D51C432C600C4D08352C684E689C431D
:10046000F60200D51C432C60074D0C352C684E68F5
:100470009C43B60200D51C432C60521C102AFFF48A
:1004800053AFBDE8F88F0000003C01404438024003
:100490000030014000000240000402400008024019
:1004A000000C0240001002400014024000180240FC
:1004B000426931EA020200D10904816170470AB140
:1004C000816170470904FBE70148806870470000BC
:1004D0000000002002488168027811448160704762
:1004E000000000200B4810B5016841F40071016064
:1004F000016841F480610160016841F4807101602C
:10050000032000F061F8002000F006F800F024F865
:10051000002010BD003C024070B50D4D04464FF464
:100520007A712878B1FBF0F00A490968B1FBF0F064
:1005300000F0E2FA48B9102C07D200222146501EE2
:1005400000F022F800206C6070BD012070BD00003A
:10055000000000200C0000200A4808B5016841F4A2
:1005600080410160006800F4804000900548001F51
:10057000016841F080510160006800F080500090F7
:1005800008BD000044380240F0B40E4B1B680C4616
:10059000C3F30223C3F10705042D00D90425191D57
:1005A000072901D2002300E0DB1E012606FA05F12F
:1005B000491E214099409E40761E16403143F0BCB2
:1005C00000F049BB0CED00E0064900F007020868A6
:1005D0004FF6FF03184040EA0220034A1043086028
:1005E000704700000CED00E00000FA052DE9F0472F
:1005F0000E46050065D0DFF81481D8F80000F7B288
:1006000000F00F00B04207D288F80070D8F8000060
:1006100000F00F00B04254D128683D4C810712D53C
:10062000400703D5206840F4E05020602878000798
:1006300003D5206840F4604020602068A96820F05D
:10064000F000084320602878C0072DD03049686842
:100650000839012812D0022813D0032811D00968C4
:10066000890700292DDA216821F003010143216067
:10067000FFF72AFF814641F2883A0EE009688903B4
:10068000EFE709688901ECE7FFF71EFFA0EB09011E
:10069000514502D90320BDE8F0872068696800F061
:1006A0000C00B0EB810FEFD1D8F80010404601F0FC
:1006B0000F01B14207D90770006800F00F00B04287
:1006C00001D00120E7E72878400705D52068E968D0
:1006D00020F4E050084320602878000706D5206801
:1006E000296920F4604040EAC100206000F016F85B
:1006F0002168084AC1F30311515CC84006490860EB
:100700000020FFF709FF0020C5E70000003C024081
:1007100008380240D40C00080C000020224810B514
:10072000006810F00C02214815D02149042A11D08C
:100730001D4C241F082A0FD00C2A0CD122682368D4
:1007400002F03F025B0221D52068C0F38810A0FBB5
:10075000010120E0084610BD2268236802F03F0234
:100760005B0205D52068C0F38810A0FB010104E0FE
:100770002168C1F38811A1FB00010023FFF73EFDB2
:100780002168C1F30141491C49000AE02168C1F315
:100790008811A1FB00010023FFF730FD2168C1F3A0
:1007A0000271B0FBF1F010BD083802400024F400E3
:1007B00040787D012DE9F84F0546DFF828B3007831
:1007C000ABF10407C007A7F1040451D0DBF8001017
:1007D0005846C1F3810101290FD00168C1F381019D
:1007E000022902D13968490207D40068C0F38100A8
:1007F000032809D13868400206D52068800337D520
:100800006868002872D033E06868B0F5803F10D087
:10081000B0F5A02F206810D020F480302060206830
:1008200020F4802020606868A8B1FFF74DFE0646DE
:100830000DE0206840F48030F4E740F48020206030
:10084000F7E700BFFFF740FE801B642878D82068D8
:100850008003F7D50CE0FFF737FE064605E000BF42
:10086000FFF732FE801B6428F0D820688003F7D49D
:100870002878DFF8749280074FF0000A46D5DBF83D
:100880000010584611F00C0F0FD00168C1F3810120
:10089000022902D13968490207D50068C0F38100F6
:1008A000032809D13868400206D42068800715D58E
:1008B000E86801281AD111E0E868C0B10120C9F840
:1008C0000000FFF701FE064605E000BFFFF7FCFD54
:1008D000801B0228BAD820688007F7D520682969CC
:1008E00020F0F80040EAC10020600FE0F7E0C9F80E
:1008F00000A0FFF7E9FD064605E000BFFFF7E4FDB5
:10090000801B02281CD820688007F7D428780007AD
:1009100027D5DFF8D0817548696908F16C0881B185
:1009200001210160FFF7D0FD064604E0FFF7CCFD92
:10093000801B022804D8D8F800008007F6D510E004
:1009400089E0C0F800A0FFF7BFFD064605E000BF44
:10095000FFF7BAFD801B02287DD8D8F80000800779
:10096000F6D42878400769D55E484FF00008383043
:100970000068C0000BD45B483830016841F08051FA
:10098000016000684FF0010800F080500090584E60
:100990003068C00511D4306840F480703060FFF7D3
:1009A00093FD009006E000BFFFF78EFD0099401A0E
:1009B000022850D83068C005F6D54A4EA868683677
:1009C00001280FD00528306810D020F001003060D9
:1009D000306820F004003060A868B8B1FFF774FDFB
:1009E00000900FE0306840F00100F4E740F00400B0
:1009F0003060F7E7FFF768FD0099411A41F288304F
:100A0000814264D830688007F4D50EE0FFF75CFDC2
:100A1000009007E0FFF758FD0099411A41F2883035
:100A2000814254D830688007F4D4B8F1000F05D063
:100A30002C483830016821F080510160A869A8B3C2
:100A4000DBF80010C1F38101022948D00228C9F85F
:100A500060A005D000E03AE0FFF736FD054639E03A
:100A6000FFF732FD064604E0FFF72EFD801B02284B
:100A70002DD820688001F7D4F5E907010843E9681B
:100A80001C4A490802EB0141AA6841EA8211084365
:100A9000297C40EA0160297D40EA0170386001202C
:100AA000C9F86000FFF710FD054606E015E000BF3D
:100AB000FFF70AFD401B022809D820688001F7D5FE
:100AC0000BE000BFFFF700FD401B022802D9032006
:100AD000BDE8F88F20688001F4D40020F8E70120F9
:100AE000F6E700000838024000004742800E474207
:100AF000007000400000FFFF10B5401EB0F1807F85
:100B000001D3012010BD4FF0E02460610F21601778
:100B100000F0A1F80020A06107202061002010BD96
:100B2000FEE7000030B587B014216846FFF79EFB52
:100B300011480024016841F080010160016801F062
:100B400080010591016841F00101016000680B4DD1
:100B500000F001000590224660212846FFF7AFFC17
:100B6000602000900120CDE90104694628460394E5
:100B7000FFF7CCFB07B030BD303802400000024028
:100B8000FEE7704770477047FFF7A4BC10B594B0FC
:100B900034216846FFF76AFB14210DA8FFF766FBB6
:100BA00015480024016841F080510160006800F0A0
:100BB000805012901148016821F4404141F4804175
:100BC00001600068069400F44040129002200090FA
:100BD00001200390102004906846FFF7EBFD0F20E2
:100BE000CDE90D040F94109400210DA81194FFF786
:100BF000FDFC14B010BD0000403802400070004001
:100C00001048016841F4700101600F48016841F02B
:100C1000010101600C4A00210832116002680B4B8F
:100C20001A400260031D0A4A1A60026822F48022F8
:100C3000026005480C30016002495806803908609E
:100C40007047000088ED00E000380240FFFFF6FE2C
:100C500010300024FEE70907090E002804DB00F12C
:100C6000E02080F80014704700F00F0000F1E02051
:100C700080F8141D704702E008C8121F08C1002A3E
:100C8000FAD170477047002001E001C1121F002A0D
:100C9000FBD17047FFF726FCFFF778FFFFF742FF15
:100CA0000B4D4FF47A7420212846FFF701FC0122F6
:100CB00040212846FFF703FC2046FFF715FB0022E2
:100CC00040212846FFF7FBFB2046FFF70DFBEAE734
:100CD00000000240000000000000000001020304C8
:100CE00006070809040D000800000020100000009D
:100CF000760C0008140D000810000020000400000D
:100D0000860C000801000000100000000000000038
:040D10000024F400C7
:04000005080001C529
:00000001FF
